:020000040000FA
:100000000C9462000C948A000C948A000C948A0070
:100010000C948A000C948A000C948A000C948A0038
:100020000C948A000C948A000C948A000C948A0028
:100030000C948A000C948A000C948A000C948A0018
:100040000C9402030C948A000C948A000C948A008D
:100050000C948A000C948A000C948A000C948A00F8
:100060000C948A000C948A000000000024002700F1
:100070002A0000000000250028002B0000000008D6
:10008000000201000003040700000000000000005F
:1000900000000000230026002900040404040404D6
:1000A0000404020202020202030303030303010227
:1000B00004081020408001020408102001020408F6
:1000C0001020920411241FBECFEFD8E0DEBFCDBFB9
:1000D00011E0A0E0B1E0E2EFF9E002C005900D927E
:1000E000A832B107D9F721E0A8E2B1E001C01D9222
:1000F000AB34B207E1F710E0C2E6D0E004C02197CC
:10010000FE010E94F104C136D107C9F70E94910394
:100110000C94F7040C940000AF92BF92CF92DF9240
:10012000EF92FF920F931F93CF93DF936C017B01AC
:100130008B01040F151FEB015E01AE18BF08C0173D
:10014000D10759F06991D601ED91FC910190F081B0
:10015000E02DC6010995892B79F7C501DF91CF9173
:100160001F910F91FF90EF90DF90CF90BF90AF90D5
:10017000089590E0FC01E458FF4F2491FC01E25502
:10018000FF4F3491FC01E656FF4FE491EE23C9F096
:10019000222339F0233001F1A8F4213019F1223063
:1001A00029F1F0E0EE0FFF1FEE58FF4FA591B4913B
:1001B0008FB7F894EC91611126C030953E233C93A3
:1001C0008FBF08952730A9F02830C9F0243049F7AF
:1001D000809180008F7D03C0809180008F77809315
:1001E0008000DFCF84B58F7784BDDBCF84B58F7D72
:1001F000FBCF8091B0008F778093B000D2CF8091F9
:10020000B0008F7DF9CF3E2BDACFCF93DF9390E014
:10021000FC01E255FF4F249186569F4FFC018491CB
:100220008823D1F090E0880F991FFC01E859FF4F17
:10023000A591B491FC01EE58FF4FC591D491611185
:100240000EC09FB7F8948C91E22FE0958E238C938B
:100250002881E223E8839FBFDF91CF9108958FB774
:10026000F894EC91E22BEC938FBFF6CF3FB7F89464
:1002700080912D0190912E01A0912F01B09130011C
:1002800026B5A89B05C02F3F19F00196A11DB11DF1
:100290003FBFBA2FA92F982F8827BC01CD01620F2D
:1002A000711D811D911D42E0660F771F881F991FE8
:1002B0004A95D1F70895089590E080E008958F92CF
:1002C0009F92AF92BF920F931F93CF93DF93CDB7BF
:1002D000DEB7A1970FB6F894DEBF0FBECDBF19A24F
:1002E000423008F44AE08E010F5D1F4F842E912C9E
:1002F000B12CA12CA50194010E94B004E62FB901F4
:10030000CA01EA3044F5E05DD801EE938D01232B5C
:10031000242B252B79F790E080E0109769F0FD0100
:1003200001900020E9F73197AF014A1B5B0BBD013B
:1003300083E391E00E948C00A1960FB6F894DEBF93
:100340000FBECDBFDF91CF911F910F91BF90AF90A6
:100350009F908F900895E95CD7CFFC010190002019
:10036000E9F73197AF01481B590BBC0183E391E0DA
:100370000C948C00CF93DF93EC0160E08E810E949F
:10038000B90061E08E810E94B90060E08E810E9418
:10039000B9008BE891E00197F1F7DF91CF910895D3
:1003A000CF92DF92EF92FF920F931F93CF93DF9341
:1003B0006C017C0187E0E80EF11CD0E0C0E0062F64
:1003C00010E0B8010C2E02C0759567950A94E2F70B
:1003D0006170F70181917F010E94B9002196C430BC
:1003E000D10579F7C601DF91CF911F910F91FF9051
:1003F000EF90DF90CF900C94BA01CF92DF92EF9202
:10040000FF920F931F93CF93DF93EC01F62E642F8F
:100410008C810E94B9008D818F3F19F060E00E94AD
:10042000B9000F2D10E08F8584FF25C06E0187E095
:10043000C80ED11CF12CE12CB8010E2C02C0759510
:1004400067950A94E2F76170F60181916F010E944D
:10045000B900FFEFEF1AFF0A88E0E816F10461F730
:10046000CE01DF91CF911F910F91FF90EF90DF9020
:10047000CF900C94BA01B80184E0759567958A9580
:10048000E1F7CE010E94D0016F2DCE01DF91CF9117
:100490001F910F91FF90EF90DF90CF900C94D001BF
:1004A00040E0682F83E391E00C94FD01CF93DF934C
:1004B000823029F490914201986090934201809398
:1004C00046011092470180E48093480180E18093C7
:1004D000490180E580934A0161E0809137010E94E3
:1004E0000501809138018F3F19F061E00E940501FC
:1004F00061E0809139010E940501C3E3D1E09E01D2
:10050000235331408091420184FD0BC084E090E090
:1005100021962817390744F461E08E810E94050175
:10052000EECF88E090E0F4CF8BE39DE00197F1F708
:1005300060E0809137010E94B90060E0809139014C
:100540000E94B900809138018F3F19F060E00E944D
:10055000B9008091420184FD39C063E083E391E0FA
:100560000E94D001CBE4D6E4CE010197F1F763E01D
:1005700083E391E00E94D0012197F1F763E083E3E8
:1005800091E00E94D00183E592E00197F1F762E0EB
:1005900083E391E00E94D0018091420180620E9439
:1005A000500284E0809343018CE00E94500281E07D
:1005B0000E9450028BE39FE10197F1F782E0809364
:1005C000440186E0DF91CF910C94500280620E943A
:1005D00050028BE496E40197F1F78091420180622A
:1005E0000E94500283E592E00197F1F78091420169
:1005F00080620E945002D0CF41E00E94FD0181E064
:1006000090E008951F920F920FB60F9211242F932E
:100610003F938F939F93AF93BF93809129019091C4
:100620002A01A0912B01B0912C013091280123E0E7
:10063000230F2D3758F50196A11DB11D20932801D8
:100640008093290190932A01A0932B01B0932C0150
:1006500080912D0190912E01A0912F01B091300138
:100660000196A11DB11D80932D0190932E01A093A1
:100670002F01B0933001BF91AF919F918F913F9126
:100680002F910F900FBE0F901F90189526E8230F03
:100690000296A11DB11DD2CFCF92DF92EF92FF92B1
:1006A0000F931F93E82FF92F05C00150110921095D
:1006B000310961F1908196239417B9F305C0015077
:1006C00011092109310911F1908196239413F7CF73
:1006D000C12CD12CE12CF12C0AC08FEFC81AD80AFA
:1006E000E80AF80A0C151D052E053F0579F08081F2
:1006F0008623841791F36C2D7D2D8E2D9F2D1F91B8
:100700000F91FF90EF90DF90CF90089560E070E040
:1007100080E090E01F910F91FF90EF90DF90CF90DD
:100720000895789484B5826084BD84B5816084BD69
:1007300085B5826085BD85B5816085BD80916E007F
:10074000816080936E0010928100809181008260B0
:1007500080938100809181008160809381008091ED
:1007600080008160809380008091B10084608093DC
:10077000B1008091B00081608093B00080917A00D8
:10078000846080937A0080917A00826080937A00FE
:1007900080917A00816080937A0080917A008068ED
:1007A00080937A001092C10082E00E94560261E0BC
:1007B00086E00E94050160E085E00E94050123E2D9
:1007C000222E312C3AE3432E512C612C712CC0E0A7
:1007D000D0E060E086E00E94B90083E090E00197FD
:1007E000F1F761E086E00E94B900C1010197F1F7DD
:1007F00060E086E00E94B900E3EBF0E06491EFE98D
:10080000F0E08491E82FF0E0EE0FFF1FE057FF4F7C
:100810008591949100E412E42FE030E0462F0E948D
:100820004C03611571058105910529F06F5F7F4FBC
:100830008F4F9F4F9F70A30192010E94D20430936B
:10084000320120933101E1E0809146018111E0E025
:10085000E195F0E0ED5CFE4F848980680E945002D3
:100860008CE091E00E94AD01E0914601E23008F099
:1008700057C0E150F0E0ED5CFE4F848980680E9433
:1008800050028CE191E00E94AD01C0903101D09006
:1008900032010D2C000CEE08FF084AE0C701B6013A
:1008A000F7FE0EC041E06DE283E391E00E94FD019E
:1008B00066277727CB016C197D098E099F094AE0CD
:1008C0000E945F0184E291E00E94AD010E94360126
:1008D0004B015C018AE0C82ED12CE12CF12C0E9446
:1008E0003601681979098A099B09683E73408105B8
:1008F0009105A8F3F1E0CF1AD108E108F10828EE3C
:10090000820E23E0921EA11CB11CC114D104E1048B
:10091000F10429F7209709F45CCF0E94000059CF19
:10092000E1E0A8CFE3E3F1E01382128284E091E0FA
:10093000918380838CE084838FEF85838BE0868333
:100940008AE0878389E0808788E0818787E08287E3
:100950001386148615861686178681E00C94560237
:10096000A1E21A2EAA1BBB1BFD010DC0AA1FBB1FB3
:10097000EE1FFF1FA217B307E407F50720F0A21B25
:10098000B30BE40BF50B661F771F881F991F1A9492
:1009900069F760957095809590959B01AC01BD01BC
:1009A000CF010895052E97FB1EF400940E94E904E0
:1009B00057FD07D00E94B00407FC03D04EF40C94FE
:1009C000E90450954095309521953F4F4F4F5F4F2B
:1009D000089590958095709561957F4F8F4F9F4FAB
:1009E0000895EE0FFF1F0590F491E02D0994F894FF
:1009F000FFCF00000000FC028C005C015B014E494F
:100A00004D3A31393034303037392F3344004A6170
:0A0A100072616B3A200020636D0054
:107E0000112484B714BE81FFF0D085E080938100F7
:107E100082E08093C00088E18093C10086E0809377
:107E2000C20080E18093C4008EE0C9D0259A86E02C
:107E300020E33CEF91E0309385002093840096BBD3
:107E4000B09BFECF1D9AA8958150A9F7CC24DD24C4
:107E500088248394B5E0AB2EA1E19A2EF3E0BF2EE7
:107E6000A2D0813461F49FD0082FAFD0023811F036
:107E7000013811F484E001C083E08DD089C08234E0
:107E800011F484E103C0853419F485E0A6D080C0E4
:107E9000853579F488D0E82EFF2485D0082F10E0AE
:107EA000102F00270E291F29000F111F8ED06801E7
:107EB0006FC0863521F484E090D080E0DECF843638
:107EC00009F040C070D06FD0082F6DD080E0C81688
:107ED00080E7D80618F4F601B7BEE895C0E0D1E017
:107EE00062D089930C17E1F7F0E0CF16F0E7DF06D8
:107EF00018F0F601B7BEE89568D007B600FCFDCFD4
:107F0000A601A0E0B1E02C9130E011968C91119780
:107F100090E0982F8827822B932B1296FA010C0160
:107F200087BEE89511244E5F5F4FF1E0A038BF0790
:107F300051F7F601A7BEE89507B600FCFDCF97BE46
:107F4000E89526C08437B1F42ED02DD0F82E2BD052
:107F50003CD0F601EF2C8F010F5F1F4F84911BD097
:107F6000EA94F801C1F70894C11CD11CFA94CF0C13
:107F7000D11C0EC0853739F428D08EE10CD085E9AC
:107F80000AD08FE07ACF813511F488E018D01DD067
:107F900080E101D065CF982F8091C00085FFFCCF94
:107FA0009093C60008958091C00087FFFCCF809118
:107FB000C00084FD01C0A8958091C6000895E0E648
:107FC000F0E098E1908380830895EDDF803219F02E
:107FD00088E0F5DFFFCF84E1DECF1F93182FE3DFCA
:107FE0001150E9F7F2DF1F91089580E0E8DFEE27F6
:047FF000FF270994CA
:027FFE00040479
:00000001FF
